{
    "abi": [
        {
            "type": "constructor",
            "inputs": [],
            "stateMutability": "nonpayable"
        },
        {
            "type": "function",
            "name": "borrow",
            "inputs": [
                {
                    "name": "order",
                    "type": "tuple",
                    "internalType": "struct IRenftMarket.RentoutOrder",
                    "components": [
                        {
                            "name": "maker",
                            "type": "address",
                            "internalType": "address"
                        },
                        {
                            "name": "nft_ca",
                            "type": "address",
                            "internalType": "address"
                        },
                        {
                            "name": "token_id",
                            "type": "uint256",
                            "internalType": "uint256"
                        },
                        {
                            "name": "daily_rent",
                            "type": "uint256",
                            "internalType": "uint256"
                        },
                        {
                            "name": "max_rental_duration",
                            "type": "uint256",
                            "internalType": "uint256"
                        },
                        {
                            "name": "min_collateral",
                            "type": "uint256",
                            "internalType": "uint256"
                        },
                        {
                            "name": "list_endtime",
                            "type": "uint256",
                            "internalType": "uint256"
                        }
                    ]
                },
                {
                    "name": "makerSignature",
                    "type": "bytes",
                    "internalType": "bytes"
                }
            ],
            "outputs": [],
            "stateMutability": "payable"
        },
        {
            "type": "function",
            "name": "cancelOrder",
            "inputs": [
                {
                    "name": "order",
                    "type": "tuple",
                    "internalType": "struct IRenftMarket.RentoutOrder",
                    "components": [
                        {
                            "name": "maker",
                            "type": "address",
                            "internalType": "address"
                        },
                        {
                            "name": "nft_ca",
                            "type": "address",
                            "internalType": "address"
                        },
                        {
                            "name": "token_id",
                            "type": "uint256",
                            "internalType": "uint256"
                        },
                        {
                            "name": "daily_rent",
                            "type": "uint256",
                            "internalType": "uint256"
                        },
                        {
                            "name": "max_rental_duration",
                            "type": "uint256",
                            "internalType": "uint256"
                        },
                        {
                            "name": "min_collateral",
                            "type": "uint256",
                            "internalType": "uint256"
                        },
                        {
                            "name": "list_endtime",
                            "type": "uint256",
                            "internalType": "uint256"
                        }
                    ]
                },
                {
                    "name": "makerSignatre",
                    "type": "bytes",
                    "internalType": "bytes"
                }
            ],
            "outputs": [],
            "stateMutability": "nonpayable"
        },
        {
            "type": "function",
            "name": "canceledOrders",
            "inputs": [
                {
                    "name": "",
                    "type": "bytes32",
                    "internalType": "bytes32"
                }
            ],
            "outputs": [
                {
                    "name": "",
                    "type": "bool",
                    "internalType": "bool"
                }
            ],
            "stateMutability": "view"
        },
        {
            "type": "function",
            "name": "eip712Domain",
            "inputs": [],
            "outputs": [
                {
                    "name": "fields",
                    "type": "bytes1",
                    "internalType": "bytes1"
                },
                {
                    "name": "name",
                    "type": "string",
                    "internalType": "string"
                },
                {
                    "name": "version",
                    "type": "string",
                    "internalType": "string"
                },
                {
                    "name": "chainId",
                    "type": "uint256",
                    "internalType": "uint256"
                },
                {
                    "name": "verifyingContract",
                    "type": "address",
                    "internalType": "address"
                },
                {
                    "name": "salt",
                    "type": "bytes32",
                    "internalType": "bytes32"
                },
                {
                    "name": "extensions",
                    "type": "uint256[]",
                    "internalType": "uint256[]"
                }
            ],
            "stateMutability": "view"
        },
        {
            "type": "function",
            "name": "orderHash",
            "inputs": [
                {
                    "name": "order",
                    "type": "tuple",
                    "internalType": "struct IRenftMarket.RentoutOrder",
                    "components": [
                        {
                            "name": "maker",
                            "type": "address",
                            "internalType": "address"
                        },
                        {
                            "name": "nft_ca",
                            "type": "address",
                            "internalType": "address"
                        },
                        {
                            "name": "token_id",
                            "type": "uint256",
                            "internalType": "uint256"
                        },
                        {
                            "name": "daily_rent",
                            "type": "uint256",
                            "internalType": "uint256"
                        },
                        {
                            "name": "max_rental_duration",
                            "type": "uint256",
                            "internalType": "uint256"
                        },
                        {
                            "name": "min_collateral",
                            "type": "uint256",
                            "internalType": "uint256"
                        },
                        {
                            "name": "list_endtime",
                            "type": "uint256",
                            "internalType": "uint256"
                        }
                    ]
                }
            ],
            "outputs": [
                {
                    "name": "",
                    "type": "bytes32",
                    "internalType": "bytes32"
                }
            ],
            "stateMutability": "pure"
        },
        {
            "type": "function",
            "name": "orders",
            "inputs": [
                {
                    "name": "",
                    "type": "bytes32",
                    "internalType": "bytes32"
                }
            ],
            "outputs": [
                {
                    "name": "taker",
                    "type": "address",
                    "internalType": "address"
                },
                {
                    "name": "collateral",
                    "type": "uint256",
                    "internalType": "uint256"
                },
                {
                    "name": "start_time",
                    "type": "uint256",
                    "internalType": "uint256"
                },
                {
                    "name": "rentinfo",
                    "type": "tuple",
                    "internalType": "struct IRenftMarket.RentoutOrder",
                    "components": [
                        {
                            "name": "maker",
                            "type": "address",
                            "internalType": "address"
                        },
                        {
                            "name": "nft_ca",
                            "type": "address",
                            "internalType": "address"
                        },
                        {
                            "name": "token_id",
                            "type": "uint256",
                            "internalType": "uint256"
                        },
                        {
                            "name": "daily_rent",
                            "type": "uint256",
                            "internalType": "uint256"
                        },
                        {
                            "name": "max_rental_duration",
                            "type": "uint256",
                            "internalType": "uint256"
                        },
                        {
                            "name": "min_collateral",
                            "type": "uint256",
                            "internalType": "uint256"
                        },
                        {
                            "name": "list_endtime",
                            "type": "uint256",
                            "internalType": "uint256"
                        }
                    ]
                }
            ],
            "stateMutability": "view"
        },
        {
            "type": "event",
            "name": "BorrowNFT",
            "inputs": [
                {
                    "name": "taker",
                    "type": "address",
                    "indexed": true,
                    "internalType": "address"
                },
                {
                    "name": "maker",
                    "type": "address",
                    "indexed": true,
                    "internalType": "address"
                },
                {
                    "name": "orderHash",
                    "type": "bytes32",
                    "indexed": false,
                    "internalType": "bytes32"
                },
                {
                    "name": "collateral",
                    "type": "uint256",
                    "indexed": false,
                    "internalType": "uint256"
                }
            ],
            "anonymous": false
        },
        {
            "type": "event",
            "name": "EIP712DomainChanged",
            "inputs": [],
            "anonymous": false
        },
        {
            "type": "event",
            "name": "OrderCanceled",
            "inputs": [
                {
                    "name": "maker",
                    "type": "address",
                    "indexed": true,
                    "internalType": "address"
                },
                {
                    "name": "orderHash",
                    "type": "bytes32",
                    "indexed": false,
                    "internalType": "bytes32"
                }
            ],
            "anonymous": false
        },
        {
            "type": "error",
            "name": "ErrorMoneyInsufficient",
            "inputs": [
                {
                    "name": "collateral",
                    "type": "uint256",
                    "internalType": "uint256"
                },
                {
                    "name": "daily_rent",
                    "type": "uint256",
                    "internalType": "uint256"
                }
            ]
        },
        {
            "type": "error",
            "name": "ErrorOrderCancelled",
            "inputs": [
                {
                    "name": "order",
                    "type": "tuple",
                    "internalType": "struct IRenftMarket.RentoutOrder",
                    "components": [
                        {
                            "name": "maker",
                            "type": "address",
                            "internalType": "address"
                        },
                        {
                            "name": "nft_ca",
                            "type": "address",
                            "internalType": "address"
                        },
                        {
                            "name": "token_id",
                            "type": "uint256",
                            "internalType": "uint256"
                        },
                        {
                            "name": "daily_rent",
                            "type": "uint256",
                            "internalType": "uint256"
                        },
                        {
                            "name": "max_rental_duration",
                            "type": "uint256",
                            "internalType": "uint256"
                        },
                        {
                            "name": "min_collateral",
                            "type": "uint256",
                            "internalType": "uint256"
                        },
                        {
                            "name": "list_endtime",
                            "type": "uint256",
                            "internalType": "uint256"
                        }
                    ]
                }
            ]
        },
        {
            "type": "error",
            "name": "ErrorOrderExpired",
            "inputs": [
                {
                    "name": "order",
                    "type": "tuple",
                    "internalType": "struct IRenftMarket.RentoutOrder",
                    "components": [
                        {
                            "name": "maker",
                            "type": "address",
                            "internalType": "address"
                        },
                        {
                            "name": "nft_ca",
                            "type": "address",
                            "internalType": "address"
                        },
                        {
                            "name": "token_id",
                            "type": "uint256",
                            "internalType": "uint256"
                        },
                        {
                            "name": "daily_rent",
                            "type": "uint256",
                            "internalType": "uint256"
                        },
                        {
                            "name": "max_rental_duration",
                            "type": "uint256",
                            "internalType": "uint256"
                        },
                        {
                            "name": "min_collateral",
                            "type": "uint256",
                            "internalType": "uint256"
                        },
                        {
                            "name": "list_endtime",
                            "type": "uint256",
                            "internalType": "uint256"
                        }
                    ]
                }
            ]
        },
        {
            "type": "error",
            "name": "ErrorOrderRented",
            "inputs": [
                {
                    "name": "order",
                    "type": "tuple",
                    "internalType": "struct IRenftMarket.RentoutOrder",
                    "components": [
                        {
                            "name": "maker",
                            "type": "address",
                            "internalType": "address"
                        },
                        {
                            "name": "nft_ca",
                            "type": "address",
                            "internalType": "address"
                        },
                        {
                            "name": "token_id",
                            "type": "uint256",
                            "internalType": "uint256"
                        },
                        {
                            "name": "daily_rent",
                            "type": "uint256",
                            "internalType": "uint256"
                        },
                        {
                            "name": "max_rental_duration",
                            "type": "uint256",
                            "internalType": "uint256"
                        },
                        {
                            "name": "min_collateral",
                            "type": "uint256",
                            "internalType": "uint256"
                        },
                        {
                            "name": "list_endtime",
                            "type": "uint256",
                            "internalType": "uint256"
                        }
                    ]
                }
            ]
        },
        {
            "type": "error",
            "name": "ErrorWrongSigner",
            "inputs": [
                {
                    "name": "signer",
                    "type": "address",
                    "internalType": "address"
                },
                {
                    "name": "marker",
                    "type": "address",
                    "internalType": "address"
                }
            ]
        },
        {
            "type": "error",
            "name": "InvalidShortString",
            "inputs": []
        },
        {
            "type": "error",
            "name": "InvalidSignature",
            "inputs": []
        },
        {
            "type": "error",
            "name": "StringTooLong",
            "inputs": [
                {
                    "name": "str",
                    "type": "string",
                    "internalType": "string"
                }
            ]
        }
    ],
    "bytecode": {
        "object": "0x61016060405234801561001157600080fd5b50604080518082018252600b81526a14995b999d13585c9ad95d60aa1b602080830191909152825180840190935260018352603160f81b9083015290610058826000610102565b61012052610067816001610102565b61014052815160208084019190912060e052815190820120610100524660a0526100f460e05161010051604080517f8b73c3c69bb8fe3d512ecc4cf759cc79239f7b179b0ffacaa9a75d522b39400f60208201529081019290925260608201524660808201523060a082015260009060c00160405160208183030381529060405280519060200120905090565b60805250503060c05261034f565b600060208351101561011e5761011783610135565b905061012f565b81610129848261021d565b5060ff90505b92915050565b600080829050601f81511115610169578260405163305a27a960e01b815260040161016091906102dc565b60405180910390fd5b80516101748261032b565b179392505050565b634e487b7160e01b600052604160045260246000fd5b600181811c908216806101a657607f821691505b6020821081036101c657634e487b7160e01b600052602260045260246000fd5b50919050565b601f821115610218576000816000526020600020601f850160051c810160208610156101f55750805b601f850160051c820191505b8181101561021457828155600101610201565b5050505b505050565b81516001600160401b038111156102365761023661017c565b61024a816102448454610192565b846101cc565b602080601f83116001811461027f57600084156102675750858301515b600019600386901b1c1916600185901b178555610214565b600085815260208120601f198616915b828110156102ae5788860151825594840194600190910190840161028f565b50858210156102cc5787850151600019600388901b60f8161c191681555b5050505050600190811b01905550565b60006020808352835180602085015260005b8181101561030a578581018301518582016040015282016102ee565b506000604082860101526040601f19601f8301168501019250505092915050565b805160208083015191908110156101c65760001960209190910360031b1b16919050565b60805160a05160c05160e051610100516101205161014051610fed6103a960003960006108530152600061082101526000610ac901526000610aa1015260006109fc01526000610a2601526000610a500152610fed6000f3fe6080604052600436106100555760003560e01c806304f6789c1461005a578063287eca0d1461008d57806384b0196e146100af5780639c3f1e90146100d7578063b163f809146101f5578063e30b47fe14610208575b600080fd5b34801561006657600080fd5b5061007a610075366004610c90565b610248565b6040519081526020015b60405180910390f35b34801561009957600080fd5b506100ad6100a8366004610cb3565b6102dc565b005b3480156100bb57600080fd5b506100c46103fc565b6040516100849796959493929190610d7e565b3480156100e357600080fd5b506101766100f2366004610e17565b600360208181526000928352604092839020805460018201546002830154865160e081018852958401546001600160a01b03908116875260048501548116958701959095526005840154968601969096526006830154606086015260078301546080860152600883015460a086015260099092015460c08501529190911692909184565b604051610084949392919060006101408201905060018060a01b03808716835285602084015284604084015280845116606084015280602085015116608084015250604083015160a0830152606083015160c0830152608083015160e083015260a083015161010083015260c083015161012083015295945050505050565b6100ad610203366004610cb3565b610442565b34801561021457600080fd5b50610238610223366004610e17565b60046020526000908152604090205460ff1681565b6040519015158152602001610084565b60006102576020830183610e4c565b6102676040840160208501610e4c565b604080516001600160a01b039384166020820152929091168282015283013560608281019190915283013560808281019190915283013560a08281019190915283013560c08281019190915283013560e082015261010001604051602081830303815290604052805190602001209050919050565b60405163013d9e2760e21b815260009030906304f6789c90610302908790600401610e67565b602060405180830381865afa15801561031f573d6000803e3d6000fd5b505050506040513d601f19601f820116820180604052508101906103439190610ecc565b60008181526004602052604090205490915060ff16156103815783604051630dc7239960e21b81526004016103789190610e67565b60405180910390fd5b61038c8484846105dd565b6000818152600460209081526040909120805460ff191660011790556103b490850185610e4c565b6001600160a01b03167f35ab4a1a0e9bec7fd7ae164679b9cc00e6568e4db238d8055a75b1862f62ec2e826040516103ee91815260200190565b60405180910390a250505050565b60006060806000806000606061041061081a565b61041861084c565b60408051600080825260208201909252600f60f81b9b939a50919850469750309650945092509050565b60405163013d9e2760e21b815260009030906304f6789c90610468908790600401610e67565b602060405180830381865afa158015610485573d6000803e3d6000fd5b505050506040513d601f19601f820116820180604052508101906104a99190610ecc565b60008181526004602052604090205490915060ff16156104de5783604051630dc7239960e21b81526004016103789190610e67565b6000818152600360205260409020546001600160a01b031615610516578360405163f724f06760e01b81526004016103789190610e67565b428460c00135101561053d57836040516355adf81360e11b81526004016103789190610e67565b8360a0013534101561056e57604051633c6fdd4f60e11b815234600482015260a08501356024820152604401610378565b6105798484846105dd565b6105838482610879565b6105906020850185610e4c565b604080518381523460208201526001600160a01b03929092169133917f7929693e37b2c3c824e1eae6e2c97cbdb175614dfe9c08449a852ec53c8cb853910160405180910390a350505050565b60007fbbc35cf63a37dd5a1160f6328e970196970e5dd8bf05740d155467cf5e4dfb4d61060d6020860186610e4c565b61061d6040870160208801610e4c565b8660400135876060013588608001358960a001358a60c0013560405160200161068a9897969594939291909788526001600160a01b0396871660208901529490951660408701526060860192909252608085015260a084015260c083019190915260e08201526101000190565b60405160208183030381529060405280519060200120905060006106ac6109ef565b60405161190160f01b6020820152602281019190915260428101839052606201604051602081830303815290604052805190602001209050600080600061072887878080601f016020809104026020016040519081016040528093929190818152602001838380828437600092019190915250610b1a92505050565b92509250925060006001858585856040516000815260200160405260405161076c949392919093845260ff9290921660208401526040830152606082015260800190565b6020604051602081039080840390855afa15801561078e573d6000803e3d6000fd5b5050604051601f19015191506107a9905060208a018a610e4c565b6001600160a01b0316816001600160a01b03161415806107d057506001600160a01b038116155b1561080f57806107e360208b018b610e4c565b604051632e1e951760e01b81526001600160a01b03928316600482015291166024820152604401610378565b505050505050505050565b60606108477f00000000000000000000000000000000000000000000000000000000000000006000610b64565b905090565b60606108477f00000000000000000000000000000000000000000000000000000000000000006001610b64565b60006040518060800160405280336001600160a01b03168152602001348152602001428152602001848036038101906108b29190610ee5565b905290506108c66040840160208501610e4c565b6001600160a01b03166342842e0e6108e16020860186610e4c565b83516040805160e085901b6001600160e01b03191681526001600160a01b0393841660048201529290911660248301528601356044820152606401600060405180830381600087803b15801561093657600080fd5b505af115801561094a573d6000803e3d6000fd5b50505060009283525060036020818152604093849020835181546001600160a01b03199081166001600160a01b0392831617835585840151600184015585870151600284015560609586015180519584018054831696841696909617909555928401516004830180549094169116179091559281015160058401559081015160068301556080810151600783015560a0810151600883015560c0015160099091015550565b6000306001600160a01b037f000000000000000000000000000000000000000000000000000000000000000016148015610a4857507f000000000000000000000000000000000000000000000000000000000000000046145b15610a7257507f000000000000000000000000000000000000000000000000000000000000000090565b610847604080517f8b73c3c69bb8fe3d512ecc4cf759cc79239f7b179b0ffacaa9a75d522b39400f60208201527f0000000000000000000000000000000000000000000000000000000000000000918101919091527f000000000000000000000000000000000000000000000000000000000000000060608201524660808201523060a082015260009060c00160405160208183030381529060405280519060200120905090565b60008060008351604103610b445750505060208101516040820151606083015160001a9190610b5d565b604051638baa579f60e01b815260040160405180910390fd5b9193909250565b606060ff8314610b7e57610b7783610c11565b9050610c0b565b818054610b8a90610f83565b80601f0160208091040260200160405190810160405280929190818152602001828054610bb690610f83565b8015610c035780601f10610bd857610100808354040283529160200191610c03565b820191906000526020600020905b815481529060010190602001808311610be657829003601f168201915b505050505090505b92915050565b60606000610c1e83610c50565b604080516020808252818301909252919250600091906020820181803683375050509182525060208101929092525090565b600060ff8216601f811115610c0b57604051632cd44ac360e21b815260040160405180910390fd5b600060e08284031215610c8a57600080fd5b50919050565b600060e08284031215610ca257600080fd5b610cac8383610c78565b9392505050565b60008060006101008486031215610cc957600080fd5b610cd38585610c78565b925060e084013567ffffffffffffffff80821115610cf057600080fd5b818601915086601f830112610d0457600080fd5b813581811115610d1357600080fd5b876020828501011115610d2557600080fd5b6020830194508093505050509250925092565b6000815180845260005b81811015610d5e57602081850181015186830182015201610d42565b506000602082860101526020601f19601f83011685010191505092915050565b60ff60f81b881681526000602060e06020840152610d9f60e084018a610d38565b8381036040850152610db1818a610d38565b606085018990526001600160a01b038816608086015260a0850187905284810360c08601528551808252602080880193509091019060005b81811015610e0557835183529284019291840191600101610de9565b50909c9b505050505050505050505050565b600060208284031215610e2957600080fd5b5035919050565b80356001600160a01b0381168114610e4757600080fd5b919050565b600060208284031215610e5e57600080fd5b610cac82610e30565b60e081016001600160a01b0380610e7d85610e30565b16835280610e8d60208601610e30565b1660208401525060408301356040830152606083013560608301526080830135608083015260a083013560a083015260c083013560c083015292915050565b600060208284031215610ede57600080fd5b5051919050565b600060e08284031215610ef757600080fd5b60405160e0810181811067ffffffffffffffff82111715610f2857634e487b7160e01b600052604160045260246000fd5b604052610f3483610e30565b8152610f4260208401610e30565b602082015260408301356040820152606083013560608201526080830135608082015260a083013560a082015260c083013560c08201528091505092915050565b600181811c90821680610f9757607f821691505b602082108103610c8a57634e487b7160e01b600052602260045260246000fdfea264697066735822122007ff8d6a9b263fec7ee6e94cac6e8bae375526f578d94b39a70dd30bc4b9659664736f6c63430008190033",
        "linkReferences": {}
    },
    "methodIdentifiers": {
        "borrow((address,address,uint256,uint256,uint256,uint256,uint256),bytes)": "b163f809",
        "cancelOrder((address,address,uint256,uint256,uint256,uint256,uint256),bytes)": "287eca0d",
        "canceledOrders(bytes32)": "e30b47fe",
        "eip712Domain()": "84b0196e",
        "orderHash((address,address,uint256,uint256,uint256,uint256,uint256))": "04f6789c",
        "orders(bytes32)": "9c3f1e90"
    },
    "id": 47
}